{
  "abi": [
    {
      "inputs": [
        {
          "internalType": "uint256",
          "name": "appleCost",
          "type": "uint256"
        },
        {
          "internalType": "uint256",
          "name": "bananaCost",
          "type": "uint256"
        },
        {
          "internalType": "uint256",
          "name": "strawberryCost",
          "type": "uint256"
        },
        {
          "internalType": "uint256",
          "name": "mangoCost",
          "type": "uint256"
        }
      ],
      "stateMutability": "nonpayable",
      "type": "constructor"
    },
    {
      "anonymous": false,
      "inputs": [
        {
          "indexed": false,
          "internalType": "address",
          "name": "buyer",
          "type": "address"
        },
        {
          "indexed": false,
          "internalType": "uint256",
          "name": "quantity",
          "type": "uint256"
        },
        {
          "indexed": false,
          "internalType": "uint256",
          "name": "price",
          "type": "uint256"
        },
        {
          "indexed": false,
          "internalType": "string",
          "name": "fruit",
          "type": "string"
        }
      ],
      "name": "FruitSold",
      "type": "event"
    },
    {
      "inputs": [],
      "name": "applePrice",
      "outputs": [
        {
          "internalType": "uint256",
          "name": "",
          "type": "uint256"
        }
      ],
      "stateMutability": "view",
      "type": "function"
    },
    {
      "inputs": [],
      "name": "bananaPrice",
      "outputs": [
        {
          "internalType": "uint256",
          "name": "",
          "type": "uint256"
        }
      ],
      "stateMutability": "view",
      "type": "function"
    },
    {
      "inputs": [
        {
          "internalType": "uint256",
          "name": "quantity",
          "type": "uint256"
        }
      ],
      "name": "buyApple",
      "outputs": [],
      "stateMutability": "payable",
      "type": "function"
    },
    {
      "inputs": [
        {
          "internalType": "uint256",
          "name": "quantity",
          "type": "uint256"
        }
      ],
      "name": "buyBanana",
      "outputs": [],
      "stateMutability": "payable",
      "type": "function"
    },
    {
      "inputs": [
        {
          "internalType": "uint256",
          "name": "quantity",
          "type": "uint256"
        }
      ],
      "name": "buyMango",
      "outputs": [],
      "stateMutability": "payable",
      "type": "function"
    },
    {
      "inputs": [
        {
          "internalType": "uint256",
          "name": "quantity",
          "type": "uint256"
        }
      ],
      "name": "buyStrawberry",
      "outputs": [],
      "stateMutability": "payable",
      "type": "function"
    },
    {
      "inputs": [],
      "name": "mangoPrice",
      "outputs": [
        {
          "internalType": "uint256",
          "name": "",
          "type": "uint256"
        }
      ],
      "stateMutability": "view",
      "type": "function"
    },
    {
      "inputs": [
        {
          "internalType": "uint256",
          "name": "appleCost",
          "type": "uint256"
        },
        {
          "internalType": "uint256",
          "name": "bananaCost",
          "type": "uint256"
        },
        {
          "internalType": "uint256",
          "name": "strawberryCost",
          "type": "uint256"
        },
        {
          "internalType": "uint256",
          "name": "mangoCost",
          "type": "uint256"
        }
      ],
      "name": "setCost",
      "outputs": [],
      "stateMutability": "nonpayable",
      "type": "function"
    },
    {
      "inputs": [],
      "name": "strawberryPrice",
      "outputs": [
        {
          "internalType": "uint256",
          "name": "",
          "type": "uint256"
        }
      ],
      "stateMutability": "view",
      "type": "function"
    }
  ],
  "bytecode": "608060405234801561001057600080fd5b5060405161051b38038061051b83398101604081905261002f91610046565b60009390935560019190915560025560035561007c565b6000806000806080858703121561005c57600080fd5b505082516020840151604085015160609095015191969095509092509050565b6104908061008b6000396000f3fe6080604052600436106100865760003560e01c80635fb7b0d9116100595780635fb7b0d91461010a578063acd2cda614610120578063cb0ec74214610136578063e9c0dcc81461014c578063f5a147d81461015f57600080fd5b806303e607311461008b57806309d70cda146100a05780631c4e3780146100cf5780632b92f62c146100f7575b600080fd5b61009e610099366004610398565b610172565b005b3480156100ac57600080fd5b5061009e6100bb3660046103b1565b600093909355600191909155600255600355565b3480156100db57600080fd5b506100e560025481565b60405190815260200160405180910390f35b61009e610105366004610398565b610207565b34801561011657600080fd5b506100e560005481565b34801561012c57600080fd5b506100e560015481565b34801561014257600080fd5b506100e560035481565b61009e61015a366004610398565b61028b565b61009e61016d366004610398565b61030f565b60003411801561018f57508060015461018b91906103e3565b3410155b6101b45760405162461bcd60e51b81526004016101ab9061040e565b60405180910390fd5b604080513381526020810183905234918101919091526080606082018190526006908201526562616e616e6160d01b60a082015260008051602061043b8339815191529060c0015b60405180910390a150565b60003411801561022457508060005461022091906103e3565b3410155b6102405760405162461bcd60e51b81526004016101ab9061040e565b60408051338152602081018390523491810191909152608060608201819052600590820152646170706c6560d81b60a082015260008051602061043b8339815191529060c0016101fc565b6000341180156102a85750806003546102a491906103e3565b3410155b6102c45760405162461bcd60e51b81526004016101ab9061040e565b60408051338152602081018390523491810191909152608060608201819052600590820152646d616e676f60d81b60a082015260008051602061043b8339815191529060c0016101fc565b60003411801561032c57508060025461032891906103e3565b3410155b6103485760405162461bcd60e51b81526004016101ab9061040e565b60408051338152602081018390523491810191909152608060608201819052600a90820152697374726177626572727960b01b60a082015260008051602061043b8339815191529060c0016101fc565b6000602082840312156103aa57600080fd5b5035919050565b600080600080608085870312156103c757600080fd5b5050823594602084013594506040840135936060013592509050565b808202811582820484141761040857634e487b7160e01b600052601160045260246000fd5b92915050565b602080825260129082015271496e73756666696369656e742046756e647360701b60408201526060019056fe6307b705fde934d51e6bfb0ca1007cffee83d36b4ec99b1993d7708c563da2f8a2646970667358221220d26b5c38f591b497f1f300a880e21af3fafe8e9c6a89fd0d2da11192d76d4dcc64736f6c63430008110033",
  "bytecodeSha1": "83a72c97c75dfc7eaea1be2e82c19176b7311a08",
  "compiler": {
    "evm_version": "istanbul",
    "optimizer": {
      "enabled": true,
      "runs": 200
    },
    "version": "0.8.17+commit.8df45f5f"
  },
  "contractName": "FruitShop",
  "language": "Solidity",
  "natspec": {
    "kind": "dev",
    "methods": {},
    "version": 1
  },
  "opcodes": "PUSH1 0x80 PUSH1 0x40 MSTORE PUSH1 0x4 CALLDATASIZE LT PUSH2 0x86 JUMPI PUSH1 0x0 CALLDATALOAD PUSH1 0xE0 SHR DUP1 PUSH4 0x5FB7B0D9 GT PUSH2 0x59 JUMPI DUP1 PUSH4 0x5FB7B0D9 EQ PUSH2 0x10A JUMPI DUP1 PUSH4 0xACD2CDA6 EQ PUSH2 0x120 JUMPI DUP1 PUSH4 0xCB0EC742 EQ PUSH2 0x136 JUMPI DUP1 PUSH4 0xE9C0DCC8 EQ PUSH2 0x14C JUMPI DUP1 PUSH4 0xF5A147D8 EQ PUSH2 0x15F JUMPI PUSH1 0x0 DUP1 REVERT JUMPDEST DUP1 PUSH4 0x3E60731 EQ PUSH2 0x8B JUMPI DUP1 PUSH4 0x9D70CDA EQ PUSH2 0xA0 JUMPI DUP1 PUSH4 0x1C4E3780 EQ PUSH2 0xCF JUMPI DUP1 PUSH4 0x2B92F62C EQ PUSH2 0xF7 JUMPI JUMPDEST PUSH1 0x0 DUP1 REVERT JUMPDEST PUSH2 0x9E PUSH2 0x99 CALLDATASIZE PUSH1 0x4 PUSH2 0x398 JUMP JUMPDEST PUSH2 0x172 JUMP JUMPDEST STOP JUMPDEST CALLVALUE DUP1 ISZERO PUSH2 0xAC JUMPI PUSH1 0x0 DUP1 REVERT JUMPDEST POP PUSH2 0x9E PUSH2 0xBB CALLDATASIZE PUSH1 0x4 PUSH2 0x3B1 JUMP JUMPDEST PUSH1 0x0 SWAP4 SWAP1 SWAP4 SSTORE PUSH1 0x1 SWAP2 SWAP1 SWAP2 SSTORE PUSH1 0x2 SSTORE PUSH1 0x3 SSTORE JUMP JUMPDEST CALLVALUE DUP1 ISZERO PUSH2 0xDB JUMPI PUSH1 0x0 DUP1 REVERT JUMPDEST POP PUSH2 0xE5 PUSH1 0x2 SLOAD DUP2 JUMP JUMPDEST PUSH1 0x40 MLOAD SWAP1 DUP2 MSTORE PUSH1 0x20 ADD PUSH1 0x40 MLOAD DUP1 SWAP2 SUB SWAP1 RETURN JUMPDEST PUSH2 0x9E PUSH2 0x105 CALLDATASIZE PUSH1 0x4 PUSH2 0x398 JUMP JUMPDEST PUSH2 0x207 JUMP JUMPDEST CALLVALUE DUP1 ISZERO PUSH2 0x116 JUMPI PUSH1 0x0 DUP1 REVERT JUMPDEST POP PUSH2 0xE5 PUSH1 0x0 SLOAD DUP2 JUMP JUMPDEST CALLVALUE DUP1 ISZERO PUSH2 0x12C JUMPI PUSH1 0x0 DUP1 REVERT JUMPDEST POP PUSH2 0xE5 PUSH1 0x1 SLOAD DUP2 JUMP JUMPDEST CALLVALUE DUP1 ISZERO PUSH2 0x142 JUMPI PUSH1 0x0 DUP1 REVERT JUMPDEST POP PUSH2 0xE5 PUSH1 0x3 SLOAD DUP2 JUMP JUMPDEST PUSH2 0x9E PUSH2 0x15A CALLDATASIZE PUSH1 0x4 PUSH2 0x398 JUMP JUMPDEST PUSH2 0x28B JUMP JUMPDEST PUSH2 0x9E PUSH2 0x16D CALLDATASIZE PUSH1 0x4 PUSH2 0x398 JUMP JUMPDEST PUSH2 0x30F JUMP JUMPDEST PUSH1 0x0 CALLVALUE GT DUP1 ISZERO PUSH2 0x18F JUMPI POP DUP1 PUSH1 0x1 SLOAD PUSH2 0x18B SWAP2 SWAP1 PUSH2 0x3E3 JUMP JUMPDEST CALLVALUE LT ISZERO JUMPDEST PUSH2 0x1B4 JUMPI PUSH1 0x40 MLOAD PUSH3 0x461BCD PUSH1 0xE5 SHL DUP2 MSTORE PUSH1 0x4 ADD PUSH2 0x1AB SWAP1 PUSH2 0x40E JUMP JUMPDEST PUSH1 0x40 MLOAD DUP1 SWAP2 SUB SWAP1 REVERT JUMPDEST PUSH1 0x40 DUP1 MLOAD CALLER DUP2 MSTORE PUSH1 0x20 DUP2 ADD DUP4 SWAP1 MSTORE CALLVALUE SWAP2 DUP2 ADD SWAP2 SWAP1 SWAP2 MSTORE PUSH1 0x80 PUSH1 0x60 DUP3 ADD DUP2 SWAP1 MSTORE PUSH1 0x6 SWAP1 DUP3 ADD MSTORE PUSH6 0x62616E616E61 PUSH1 0xD0 SHL PUSH1 0xA0 DUP3 ADD MSTORE PUSH1 0x0 DUP1 MLOAD PUSH1 0x20 PUSH2 0x43B DUP4 CODECOPY DUP2 MLOAD SWAP2 MSTORE SWAP1 PUSH1 0xC0 ADD JUMPDEST PUSH1 0x40 MLOAD DUP1 SWAP2 SUB SWAP1 LOG1 POP JUMP JUMPDEST PUSH1 0x0 CALLVALUE GT DUP1 ISZERO PUSH2 0x224 JUMPI POP DUP1 PUSH1 0x0 SLOAD PUSH2 0x220 SWAP2 SWAP1 PUSH2 0x3E3 JUMP JUMPDEST CALLVALUE LT ISZERO JUMPDEST PUSH2 0x240 JUMPI PUSH1 0x40 MLOAD PUSH3 0x461BCD PUSH1 0xE5 SHL DUP2 MSTORE PUSH1 0x4 ADD PUSH2 0x1AB SWAP1 PUSH2 0x40E JUMP JUMPDEST PUSH1 0x40 DUP1 MLOAD CALLER DUP2 MSTORE PUSH1 0x20 DUP2 ADD DUP4 SWAP1 MSTORE CALLVALUE SWAP2 DUP2 ADD SWAP2 SWAP1 SWAP2 MSTORE PUSH1 0x80 PUSH1 0x60 DUP3 ADD DUP2 SWAP1 MSTORE PUSH1 0x5 SWAP1 DUP3 ADD MSTORE PUSH5 0x6170706C65 PUSH1 0xD8 SHL PUSH1 0xA0 DUP3 ADD MSTORE PUSH1 0x0 DUP1 MLOAD PUSH1 0x20 PUSH2 0x43B DUP4 CODECOPY DUP2 MLOAD SWAP2 MSTORE SWAP1 PUSH1 0xC0 ADD PUSH2 0x1FC JUMP JUMPDEST PUSH1 0x0 CALLVALUE GT DUP1 ISZERO PUSH2 0x2A8 JUMPI POP DUP1 PUSH1 0x3 SLOAD PUSH2 0x2A4 SWAP2 SWAP1 PUSH2 0x3E3 JUMP JUMPDEST CALLVALUE LT ISZERO JUMPDEST PUSH2 0x2C4 JUMPI PUSH1 0x40 MLOAD PUSH3 0x461BCD PUSH1 0xE5 SHL DUP2 MSTORE PUSH1 0x4 ADD PUSH2 0x1AB SWAP1 PUSH2 0x40E JUMP JUMPDEST PUSH1 0x40 DUP1 MLOAD CALLER DUP2 MSTORE PUSH1 0x20 DUP2 ADD DUP4 SWAP1 MSTORE CALLVALUE SWAP2 DUP2 ADD SWAP2 SWAP1 SWAP2 MSTORE PUSH1 0x80 PUSH1 0x60 DUP3 ADD DUP2 SWAP1 MSTORE PUSH1 0x5 SWAP1 DUP3 ADD MSTORE PUSH5 0x6D616E676F PUSH1 0xD8 SHL PUSH1 0xA0 DUP3 ADD MSTORE PUSH1 0x0 DUP1 MLOAD PUSH1 0x20 PUSH2 0x43B DUP4 CODECOPY DUP2 MLOAD SWAP2 MSTORE SWAP1 PUSH1 0xC0 ADD PUSH2 0x1FC JUMP JUMPDEST PUSH1 0x0 CALLVALUE GT DUP1 ISZERO PUSH2 0x32C JUMPI POP DUP1 PUSH1 0x2 SLOAD PUSH2 0x328 SWAP2 SWAP1 PUSH2 0x3E3 JUMP JUMPDEST CALLVALUE LT ISZERO JUMPDEST PUSH2 0x348 JUMPI PUSH1 0x40 MLOAD PUSH3 0x461BCD PUSH1 0xE5 SHL DUP2 MSTORE PUSH1 0x4 ADD PUSH2 0x1AB SWAP1 PUSH2 0x40E JUMP JUMPDEST PUSH1 0x40 DUP1 MLOAD CALLER DUP2 MSTORE PUSH1 0x20 DUP2 ADD DUP4 SWAP1 MSTORE CALLVALUE SWAP2 DUP2 ADD SWAP2 SWAP1 SWAP2 MSTORE PUSH1 0x80 PUSH1 0x60 DUP3 ADD DUP2 SWAP1 MSTORE PUSH1 0xA SWAP1 DUP3 ADD MSTORE PUSH10 0x73747261776265727279 PUSH1 0xB0 SHL PUSH1 0xA0 DUP3 ADD MSTORE PUSH1 0x0 DUP1 MLOAD PUSH1 0x20 PUSH2 0x43B DUP4 CODECOPY DUP2 MLOAD SWAP2 MSTORE SWAP1 PUSH1 0xC0 ADD PUSH2 0x1FC JUMP JUMPDEST PUSH1 0x0 PUSH1 0x20 DUP3 DUP5 SUB SLT ISZERO PUSH2 0x3AA JUMPI PUSH1 0x0 DUP1 REVERT JUMPDEST POP CALLDATALOAD SWAP2 SWAP1 POP JUMP JUMPDEST PUSH1 0x0 DUP1 PUSH1 0x0 DUP1 PUSH1 0x80 DUP6 DUP8 SUB SLT ISZERO PUSH2 0x3C7 JUMPI PUSH1 0x0 DUP1 REVERT JUMPDEST POP POP DUP3 CALLDATALOAD SWAP5 PUSH1 0x20 DUP5 ADD CALLDATALOAD SWAP5 POP PUSH1 0x40 DUP5 ADD CALLDATALOAD SWAP4 PUSH1 0x60 ADD CALLDATALOAD SWAP3 POP SWAP1 POP JUMP JUMPDEST DUP1 DUP3 MUL DUP2 ISZERO DUP3 DUP3 DIV DUP5 EQ OR PUSH2 0x408 JUMPI PUSH4 0x4E487B71 PUSH1 0xE0 SHL PUSH1 0x0 MSTORE PUSH1 0x11 PUSH1 0x4 MSTORE PUSH1 0x24 PUSH1 0x0 REVERT JUMPDEST SWAP3 SWAP2 POP POP JUMP JUMPDEST PUSH1 0x20 DUP1 DUP3 MSTORE PUSH1 0x12 SWAP1 DUP3 ADD MSTORE PUSH18 0x496E73756666696369656E742046756E6473 PUSH1 0x70 SHL PUSH1 0x40 DUP3 ADD MSTORE PUSH1 0x60 ADD SWAP1 JUMP INVALID PUSH4 0x7B705FD 0xE9 CALLVALUE 0xD5 0x1E PUSH12 0xFB0CA1007CFFEE83D36B4EC9 SWAP12 NOT SWAP4 0xD7 PUSH17 0x8C563DA2F8A2646970667358221220D26B 0x5C CODESIZE CREATE2 SWAP2 0xB4 SWAP8 CALL RETURN STOP 0xA8 DUP1 0xE2 BYTE RETURN STATICCALL INVALID DUP15 SWAP13 PUSH11 0x89FD0D2DA11192D76D4DCC PUSH5 0x736F6C6343 STOP ADDMOD GT STOP CALLER ",
  "sha1": "33d7679848079dce9243ff6543f489e045cd4ea1",
  "source": "// SPDX-License-Identifier: MIT\n\npragma solidity ^0.8.0;\n\ncontract FruitShop {\n    // Define the prices of each fruit\n    uint256 public applePrice;\n    uint256 public bananaPrice;\n    uint256 public strawberryPrice;\n    uint256 public mangoPrice;\n\n    constructor(uint256 appleCost, uint256 bananaCost, uint256 strawberryCost, uint256 mangoCost) {\n        setCost(appleCost, bananaCost, strawberryCost, mangoCost);\n    }\n\n    // Events to notify when a fruit is sold\n    event FruitSold(address buyer, uint256 quantity, uint256 price, string fruit);\n\n    // Functions to buy each fruit\n    function buyApple(uint256 quantity) public payable {\n       require(msg.value > 0 && msg.value >= applePrice * quantity, \"Insufficient Funds\");\n        emit FruitSold(msg.sender, quantity, msg.value, \"apple\");\n    }\n\n    function buyBanana(uint256 quantity) public payable {\n       require(msg.value > 0 && msg.value >= bananaPrice * quantity, \"Insufficient Funds\");\n        emit FruitSold(msg.sender, quantity, msg.value, \"banana\");\n    }\n\n    function buyStrawberry(uint256 quantity) public payable {\n       require(msg.value > 0 && msg.value >= strawberryPrice * quantity, \"Insufficient Funds\");\n        emit FruitSold(msg.sender, quantity, msg.value, \"strawberry\");\n    }\n\n    function buyMango(uint256 quantity) public payable {\n       require(msg.value > 0 && msg.value >= mangoPrice * quantity, \"Insufficient Funds\");\n        emit FruitSold(msg.sender, quantity, msg.value, \"mango\");\n    }\n\n    function setCost(uint256 appleCost, uint256 bananaCost, uint256 strawberryCost, uint256 mangoCost) public {\n        applePrice = appleCost;\n        bananaPrice = bananaCost;\n        strawberryPrice = strawberryCost;\n        mangoPrice = mangoCost;\n    }\n\n}\n",
  "sourcePath": "contracts/fruit.sol",
  "type": "contract"
}